{
  "_format": "hh-sol-artifact-1",
  "contractName": "MultipleUriNFT_ERC1155",
  "sourceName": "contracts/MultipleUriNFT_ERC1155.sol",
  "abi": [
    {
      "inputs": [],
      "stateMutability": "nonpayable",
      "type": "constructor"
    },
    {
      "anonymous": false,
      "inputs": [
        {
          "indexed": true,
          "internalType": "address",
          "name": "account",
          "type": "address"
        },
        {
          "indexed": true,
          "internalType": "address",
          "name": "operator",
          "type": "address"
        },
        {
          "indexed": false,
          "internalType": "bool",
          "name": "approved",
          "type": "bool"
        }
      ],
      "name": "ApprovalForAll",
      "type": "event"
    },
    {
      "anonymous": false,
      "inputs": [
        {
          "indexed": true,
          "internalType": "address",
          "name": "operator",
          "type": "address"
        },
        {
          "indexed": true,
          "internalType": "address",
          "name": "from",
          "type": "address"
        },
        {
          "indexed": true,
          "internalType": "address",
          "name": "to",
          "type": "address"
        },
        {
          "indexed": false,
          "internalType": "uint256[]",
          "name": "ids",
          "type": "uint256[]"
        },
        {
          "indexed": false,
          "internalType": "uint256[]",
          "name": "values",
          "type": "uint256[]"
        }
      ],
      "name": "TransferBatch",
      "type": "event"
    },
    {
      "anonymous": false,
      "inputs": [
        {
          "indexed": true,
          "internalType": "address",
          "name": "operator",
          "type": "address"
        },
        {
          "indexed": true,
          "internalType": "address",
          "name": "from",
          "type": "address"
        },
        {
          "indexed": true,
          "internalType": "address",
          "name": "to",
          "type": "address"
        },
        {
          "indexed": false,
          "internalType": "uint256",
          "name": "id",
          "type": "uint256"
        },
        {
          "indexed": false,
          "internalType": "uint256",
          "name": "value",
          "type": "uint256"
        }
      ],
      "name": "TransferSingle",
      "type": "event"
    },
    {
      "anonymous": false,
      "inputs": [
        {
          "indexed": false,
          "internalType": "string",
          "name": "value",
          "type": "string"
        },
        {
          "indexed": true,
          "internalType": "uint256",
          "name": "id",
          "type": "uint256"
        }
      ],
      "name": "URI",
      "type": "event"
    },
    {
      "inputs": [
        {
          "internalType": "address",
          "name": "account",
          "type": "address"
        },
        {
          "internalType": "uint256",
          "name": "id",
          "type": "uint256"
        }
      ],
      "name": "balanceOf",
      "outputs": [
        {
          "internalType": "uint256",
          "name": "",
          "type": "uint256"
        }
      ],
      "stateMutability": "view",
      "type": "function"
    },
    {
      "inputs": [
        {
          "internalType": "address[]",
          "name": "accounts",
          "type": "address[]"
        },
        {
          "internalType": "uint256[]",
          "name": "ids",
          "type": "uint256[]"
        }
      ],
      "name": "balanceOfBatch",
      "outputs": [
        {
          "internalType": "uint256[]",
          "name": "",
          "type": "uint256[]"
        }
      ],
      "stateMutability": "view",
      "type": "function"
    },
    {
      "inputs": [
        {
          "internalType": "address",
          "name": "account",
          "type": "address"
        },
        {
          "internalType": "address",
          "name": "operator",
          "type": "address"
        }
      ],
      "name": "isApprovedForAll",
      "outputs": [
        {
          "internalType": "bool",
          "name": "",
          "type": "bool"
        }
      ],
      "stateMutability": "view",
      "type": "function"
    },
    {
      "inputs": [
        {
          "internalType": "string",
          "name": "tokenURI",
          "type": "string"
        },
        {
          "internalType": "uint256",
          "name": "amount",
          "type": "uint256"
        }
      ],
      "name": "mintToken",
      "outputs": [
        {
          "internalType": "uint256",
          "name": "",
          "type": "uint256"
        }
      ],
      "stateMutability": "nonpayable",
      "type": "function"
    },
    {
      "inputs": [],
      "name": "name",
      "outputs": [
        {
          "internalType": "string",
          "name": "",
          "type": "string"
        }
      ],
      "stateMutability": "view",
      "type": "function"
    },
    {
      "inputs": [
        {
          "internalType": "address",
          "name": "from",
          "type": "address"
        },
        {
          "internalType": "address",
          "name": "to",
          "type": "address"
        },
        {
          "internalType": "uint256[]",
          "name": "ids",
          "type": "uint256[]"
        },
        {
          "internalType": "uint256[]",
          "name": "amounts",
          "type": "uint256[]"
        },
        {
          "internalType": "bytes",
          "name": "data",
          "type": "bytes"
        }
      ],
      "name": "safeBatchTransferFrom",
      "outputs": [],
      "stateMutability": "nonpayable",
      "type": "function"
    },
    {
      "inputs": [
        {
          "internalType": "address",
          "name": "from",
          "type": "address"
        },
        {
          "internalType": "address",
          "name": "to",
          "type": "address"
        },
        {
          "internalType": "uint256",
          "name": "id",
          "type": "uint256"
        },
        {
          "internalType": "uint256",
          "name": "amount",
          "type": "uint256"
        },
        {
          "internalType": "bytes",
          "name": "data",
          "type": "bytes"
        }
      ],
      "name": "safeTransferFrom",
      "outputs": [],
      "stateMutability": "nonpayable",
      "type": "function"
    },
    {
      "inputs": [
        {
          "internalType": "address",
          "name": "operator",
          "type": "address"
        },
        {
          "internalType": "bool",
          "name": "approved",
          "type": "bool"
        }
      ],
      "name": "setApprovalForAll",
      "outputs": [],
      "stateMutability": "nonpayable",
      "type": "function"
    },
    {
      "inputs": [
        {
          "internalType": "bytes4",
          "name": "interfaceId",
          "type": "bytes4"
        }
      ],
      "name": "supportsInterface",
      "outputs": [
        {
          "internalType": "bool",
          "name": "",
          "type": "bool"
        }
      ],
      "stateMutability": "view",
      "type": "function"
    },
    {
      "inputs": [
        {
          "internalType": "uint256",
          "name": "tokenId",
          "type": "uint256"
        }
      ],
      "name": "uri",
      "outputs": [
        {
          "internalType": "string",
          "name": "",
          "type": "string"
        }
      ],
      "stateMutability": "view",
      "type": "function"
    }
  ],
  "bytecode": "0x60806040526040518060400160405280601381526020017f61206c6f74206f662044656570205370616365000000000000000000000000008152506003908051906020019062000051929190620000ae565b503480156200005f57600080fd5b506040518060600160405280603a815260200162002d13603a91396200008b816200009260201b60201c565b50620001c3565b8060029080519060200190620000aa929190620000ae565b5050565b828054620000bc906200018d565b90600052602060002090601f016020900481019282620000e057600085556200012c565b82601f10620000fb57805160ff19168380011785556200012c565b828001600101855582156200012c579182015b828111156200012b5782518255916020019190600101906200010e565b5b5090506200013b91906200013f565b5090565b5b808211156200015a57600081600090555060010162000140565b5090565b7f4e487b7100000000000000000000000000000000000000000000000000000000600052602260045260246000fd5b60006002820490506001821680620001a657607f821691505b60208210811415620001bd57620001bc6200015e565b5b50919050565b612b4080620001d36000396000f3fe608060405234801561001057600080fd5b506004361061009d5760003560e01c80634e1273f4116100665780634e1273f41461016c578063a22cb4651461019c578063c046372c146101b8578063e985e9c5146101e8578063f242432a146102185761009d565b8062fdd58e146100a257806301ffc9a7146100d257806306fdde03146101025780630e89341c146101205780632eb2c2d614610150575b600080fd5b6100bc60048036038101906100b791906117a5565b610234565b6040516100c991906117f4565b60405180910390f35b6100ec60048036038101906100e79190611867565b6102fd565b6040516100f991906118af565b60405180910390f35b61010a6103df565b6040516101179190611963565b60405180910390f35b61013a60048036038101906101359190611985565b61046d565b6040516101479190611963565b60405180910390f35b61016a60048036038101906101659190611baf565b610512565b005b61018660048036038101906101819190611d41565b6105b3565b6040516101939190611e77565b60405180910390f35b6101b660048036038101906101b19190611ec5565b6106cc565b005b6101d260048036038101906101cd9190611fa6565b6106e2565b6040516101df91906117f4565b60405180910390f35b61020260048036038101906101fd9190612002565b61072a565b60405161020f91906118af565b60405180910390f35b610232600480360381019061022d9190612042565b6107be565b005b60008073ffffffffffffffffffffffffffffffffffffffff168373ffffffffffffffffffffffffffffffffffffffff1614156102a5576040517f08c379a000000000000000000000000000000000000000000000000000000000815260040161029c9061214b565b60405180910390fd5b60008083815260200190815260200160002060008473ffffffffffffffffffffffffffffffffffffffff1673ffffffffffffffffffffffffffffffffffffffff16815260200190815260200160002054905092915050565b60007fd9b67a26000000000000000000000000000000000000000000000000000000007bffffffffffffffffffffffffffffffffffffffffffffffffffffffff1916827bffffffffffffffffffffffffffffffffffffffffffffffffffffffff191614806103c857507f0e89341c000000000000000000000000000000000000000000000000000000007bffffffffffffffffffffffffffffffffffffffffffffffffffffffff1916827bffffffffffffffffffffffffffffffffffffffffffffffffffffffff1916145b806103d857506103d78261085f565b5b9050919050565b600380546103ec9061219a565b80601f01602080910402602001604051908101604052809291908181526020018280546104189061219a565b80156104655780601f1061043a57610100808354040283529160200191610465565b820191906000526020600020905b81548152906001019060200180831161044857829003601f168201915b505050505081565b606060046000838152602001908152602001600020805461048d9061219a565b80601f01602080910402602001604051908101604052809291908181526020018280546104b99061219a565b80156105065780601f106104db57610100808354040283529160200191610506565b820191906000526020600020905b8154815290600101906020018083116104e957829003601f168201915b50505050509050919050565b61051a6108c9565b73ffffffffffffffffffffffffffffffffffffffff168573ffffffffffffffffffffffffffffffffffffffff161480610560575061055f8561055a6108c9565b61072a565b5b61059f576040517f08c379a00000000000000000000000000000000000000000000000000000000081526004016105969061223e565b60405180910390fd5b6105ac85858585856108d1565b5050505050565b606081518351146105f9576040517f08c379a00000000000000000000000000000000000000000000000000000000081526004016105f0906122d0565b60405180910390fd5b6000835167ffffffffffffffff811115610616576106156119b7565b5b6040519080825280602002602001820160405280156106445781602001602082028036833780820191505090505b50905060005b84518110156106c157610691858281518110610669576106686122f0565b5b6020026020010151858381518110610684576106836122f0565b5b6020026020010151610234565b8282815181106106a4576106a36122f0565b5b602002602001018181525050806106ba9061234e565b905061064a565b508091505092915050565b6106de6106d76108c9565b8383610bf3565b5050565b6000806106ef6005610d60565b905061070c33828560405180602001604052806000815250610d6e565b6107168185610f1f565b6107206005610f4b565b8091505092915050565b6000600160008473ffffffffffffffffffffffffffffffffffffffff1673ffffffffffffffffffffffffffffffffffffffff16815260200190815260200160002060008373ffffffffffffffffffffffffffffffffffffffff1673ffffffffffffffffffffffffffffffffffffffff16815260200190815260200160002060009054906101000a900460ff16905092915050565b6107c66108c9565b73ffffffffffffffffffffffffffffffffffffffff168573ffffffffffffffffffffffffffffffffffffffff16148061080c575061080b856108066108c9565b61072a565b5b61084b576040517f08c379a000000000000000000000000000000000000000000000000000000000815260040161084290612409565b60405180910390fd5b6108588585858585610f61565b5050505050565b60007f01ffc9a7000000000000000000000000000000000000000000000000000000007bffffffffffffffffffffffffffffffffffffffffffffffffffffffff1916827bffffffffffffffffffffffffffffffffffffffffffffffffffffffff1916149050919050565b600033905090565b8151835114610915576040517f08c379a000000000000000000000000000000000000000000000000000000000815260040161090c9061249b565b60405180910390fd5b600073ffffffffffffffffffffffffffffffffffffffff168473ffffffffffffffffffffffffffffffffffffffff161415610985576040517f08c379a000000000000000000000000000000000000000000000000000000000815260040161097c9061252d565b60405180910390fd5b600061098f6108c9565b905061099f8187878787876111fd565b60005b8451811015610b505760008582815181106109c0576109bf6122f0565b5b6020026020010151905060008583815181106109df576109de6122f0565b5b60200260200101519050600080600084815260200190815260200160002060008b73ffffffffffffffffffffffffffffffffffffffff1673ffffffffffffffffffffffffffffffffffffffff16815260200190815260200160002054905081811015610a80576040517f08c379a0000000000000000000000000000000000000000000000000000000008152600401610a77906125bf565b60405180910390fd5b81810360008085815260200190815260200160002060008c73ffffffffffffffffffffffffffffffffffffffff1673ffffffffffffffffffffffffffffffffffffffff168152602001908152602001600020819055508160008085815260200190815260200160002060008b73ffffffffffffffffffffffffffffffffffffffff1673ffffffffffffffffffffffffffffffffffffffff1681526020019081526020016000206000828254610b3591906125df565b9250508190555050505080610b499061234e565b90506109a2565b508473ffffffffffffffffffffffffffffffffffffffff168673ffffffffffffffffffffffffffffffffffffffff168273ffffffffffffffffffffffffffffffffffffffff167f4a39dc06d4c0dbc64b70af90fd698a233a518aa5d07e595d983b8c0526c8f7fb8787604051610bc7929190612635565b60405180910390a4610bdd818787878787611205565b610beb81878787878761120d565b505050505050565b8173ffffffffffffffffffffffffffffffffffffffff168373ffffffffffffffffffffffffffffffffffffffff161415610c62576040517f08c379a0000000000000000000000000000000000000000000000000000000008152600401610c59906126de565b60405180910390fd5b80600160008573ffffffffffffffffffffffffffffffffffffffff1673ffffffffffffffffffffffffffffffffffffffff16815260200190815260200160002060008473ffffffffffffffffffffffffffffffffffffffff1673ffffffffffffffffffffffffffffffffffffffff16815260200190815260200160002060006101000a81548160ff0219169083151502179055508173ffffffffffffffffffffffffffffffffffffffff168373ffffffffffffffffffffffffffffffffffffffff167f17307eab39ab6107e8899845ad3d59bd9653f200f220920489ca2b5937696c3183604051610d5391906118af565b60405180910390a3505050565b600081600001549050919050565b600073ffffffffffffffffffffffffffffffffffffffff168473ffffffffffffffffffffffffffffffffffffffff161415610dde576040517f08c379a0000000000000000000000000000000000000000000000000000000008152600401610dd590612770565b60405180910390fd5b6000610de86108c9565b90506000610df5856113e5565b90506000610e02856113e5565b9050610e13836000898585896111fd565b8460008088815260200190815260200160002060008973ffffffffffffffffffffffffffffffffffffffff1673ffffffffffffffffffffffffffffffffffffffff1681526020019081526020016000206000828254610e7291906125df565b925050819055508673ffffffffffffffffffffffffffffffffffffffff16600073ffffffffffffffffffffffffffffffffffffffff168473ffffffffffffffffffffffffffffffffffffffff167fc3d58168c5ae7397731d063d5bbf3d657854427343f4c083240f7aacaa2d0f628989604051610ef0929190612790565b60405180910390a4610f0783600089858589611205565b610f168360008989898961145f565b50505050505050565b80600460008481526020019081526020016000209080519060200190610f4692919061165a565b505050565b6001816000016000828254019250508190555050565b600073ffffffffffffffffffffffffffffffffffffffff168473ffffffffffffffffffffffffffffffffffffffff161415610fd1576040517f08c379a0000000000000000000000000000000000000000000000000000000008152600401610fc89061252d565b60405180910390fd5b6000610fdb6108c9565b90506000610fe8856113e5565b90506000610ff5856113e5565b90506110058389898585896111fd565b600080600088815260200190815260200160002060008a73ffffffffffffffffffffffffffffffffffffffff1673ffffffffffffffffffffffffffffffffffffffff1681526020019081526020016000205490508581101561109c576040517f08c379a0000000000000000000000000000000000000000000000000000000008152600401611093906125bf565b60405180910390fd5b85810360008089815260200190815260200160002060008b73ffffffffffffffffffffffffffffffffffffffff1673ffffffffffffffffffffffffffffffffffffffff168152602001908152602001600020819055508560008089815260200190815260200160002060008a73ffffffffffffffffffffffffffffffffffffffff1673ffffffffffffffffffffffffffffffffffffffff168152602001908152602001600020600082825461115191906125df565b925050819055508773ffffffffffffffffffffffffffffffffffffffff168973ffffffffffffffffffffffffffffffffffffffff168573ffffffffffffffffffffffffffffffffffffffff167fc3d58168c5ae7397731d063d5bbf3d657854427343f4c083240f7aacaa2d0f628a8a6040516111ce929190612790565b60405180910390a46111e4848a8a86868a611205565b6111f2848a8a8a8a8a61145f565b505050505050505050565b505050505050565b505050505050565b61122c8473ffffffffffffffffffffffffffffffffffffffff16611637565b156113dd578373ffffffffffffffffffffffffffffffffffffffff1663bc197c8187878686866040518663ffffffff1660e01b815260040161127295949392919061281d565b6020604051808303816000875af19250505080156112ae57506040513d601f19601f820116820180604052508101906112ab919061289a565b60015b611354576112ba6128d4565b806308c379a0141561131757506112cf6128f6565b806112da5750611319565b806040517f08c379a000000000000000000000000000000000000000000000000000000000815260040161130e9190611963565b60405180910390fd5b505b6040517f08c379a000000000000000000000000000000000000000000000000000000000815260040161134b906129fe565b60405180910390fd5b63bc197c8160e01b7bffffffffffffffffffffffffffffffffffffffffffffffffffffffff1916817bffffffffffffffffffffffffffffffffffffffffffffffffffffffff1916146113db576040517f08c379a00000000000000000000000000000000000000000000000000000000081526004016113d290612a90565b60405180910390fd5b505b505050505050565b60606000600167ffffffffffffffff811115611404576114036119b7565b5b6040519080825280602002602001820160405280156114325781602001602082028036833780820191505090505b509050828160008151811061144a576114496122f0565b5b60200260200101818152505080915050919050565b61147e8473ffffffffffffffffffffffffffffffffffffffff16611637565b1561162f578373ffffffffffffffffffffffffffffffffffffffff1663f23a6e6187878686866040518663ffffffff1660e01b81526004016114c4959493929190612ab0565b6020604051808303816000875af192505050801561150057506040513d601f19601f820116820180604052508101906114fd919061289a565b60015b6115a65761150c6128d4565b806308c379a0141561156957506115216128f6565b8061152c575061156b565b806040517f08c379a00000000000000000000000000000000000000000000000000000000081526004016115609190611963565b60405180910390fd5b505b6040517f08c379a000000000000000000000000000000000000000000000000000000000815260040161159d906129fe565b60405180910390fd5b63f23a6e6160e01b7bffffffffffffffffffffffffffffffffffffffffffffffffffffffff1916817bffffffffffffffffffffffffffffffffffffffffffffffffffffffff19161461162d576040517f08c379a000000000000000000000000000000000000000000000000000000000815260040161162490612a90565b60405180910390fd5b505b505050505050565b6000808273ffffffffffffffffffffffffffffffffffffffff163b119050919050565b8280546116669061219a565b90600052602060002090601f01602090048101928261168857600085556116cf565b82601f106116a157805160ff19168380011785556116cf565b828001600101855582156116cf579182015b828111156116ce5782518255916020019190600101906116b3565b5b5090506116dc91906116e0565b5090565b5b808211156116f95760008160009055506001016116e1565b5090565b6000604051905090565b600080fd5b600080fd5b600073ffffffffffffffffffffffffffffffffffffffff82169050919050565b600061173c82611711565b9050919050565b61174c81611731565b811461175757600080fd5b50565b60008135905061176981611743565b92915050565b6000819050919050565b6117828161176f565b811461178d57600080fd5b50565b60008135905061179f81611779565b92915050565b600080604083850312156117bc576117bb611707565b5b60006117ca8582860161175a565b92505060206117db85828601611790565b9150509250929050565b6117ee8161176f565b82525050565b600060208201905061180960008301846117e5565b92915050565b60007fffffffff0000000000000000000000000000000000000000000000000000000082169050919050565b6118448161180f565b811461184f57600080fd5b50565b6000813590506118618161183b565b92915050565b60006020828403121561187d5761187c611707565b5b600061188b84828501611852565b91505092915050565b60008115159050919050565b6118a981611894565b82525050565b60006020820190506118c460008301846118a0565b92915050565b600081519050919050565b600082825260208201905092915050565b60005b838110156119045780820151818401526020810190506118e9565b83811115611913576000848401525b50505050565b6000601f19601f8301169050919050565b6000611935826118ca565b61193f81856118d5565b935061194f8185602086016118e6565b61195881611919565b840191505092915050565b6000602082019050818103600083015261197d818461192a565b905092915050565b60006020828403121561199b5761199a611707565b5b60006119a984828501611790565b91505092915050565b600080fd5b7f4e487b7100000000000000000000000000000000000000000000000000000000600052604160045260246000fd5b6119ef82611919565b810181811067ffffffffffffffff82111715611a0e57611a0d6119b7565b5b80604052505050565b6000611a216116fd565b9050611a2d82826119e6565b919050565b600067ffffffffffffffff821115611a4d57611a4c6119b7565b5b602082029050602081019050919050565b600080fd5b6000611a76611a7184611a32565b611a17565b90508083825260208201905060208402830185811115611a9957611a98611a5e565b5b835b81811015611ac25780611aae8882611790565b845260208401935050602081019050611a9b565b5050509392505050565b600082601f830112611ae157611ae06119b2565b5b8135611af1848260208601611a63565b91505092915050565b600080fd5b600067ffffffffffffffff821115611b1a57611b196119b7565b5b611b2382611919565b9050602081019050919050565b82818337600083830152505050565b6000611b52611b4d84611aff565b611a17565b905082815260208101848484011115611b6e57611b6d611afa565b5b611b79848285611b30565b509392505050565b600082601f830112611b9657611b956119b2565b5b8135611ba6848260208601611b3f565b91505092915050565b600080600080600060a08688031215611bcb57611bca611707565b5b6000611bd98882890161175a565b9550506020611bea8882890161175a565b945050604086013567ffffffffffffffff811115611c0b57611c0a61170c565b5b611c1788828901611acc565b935050606086013567ffffffffffffffff811115611c3857611c3761170c565b5b611c4488828901611acc565b925050608086013567ffffffffffffffff811115611c6557611c6461170c565b5b611c7188828901611b81565b9150509295509295909350565b600067ffffffffffffffff821115611c9957611c986119b7565b5b602082029050602081019050919050565b6000611cbd611cb884611c7e565b611a17565b90508083825260208201905060208402830185811115611ce057611cdf611a5e565b5b835b81811015611d095780611cf5888261175a565b845260208401935050602081019050611ce2565b5050509392505050565b600082601f830112611d2857611d276119b2565b5b8135611d38848260208601611caa565b91505092915050565b60008060408385031215611d5857611d57611707565b5b600083013567ffffffffffffffff811115611d7657611d7561170c565b5b611d8285828601611d13565b925050602083013567ffffffffffffffff811115611da357611da261170c565b5b611daf85828601611acc565b9150509250929050565b600081519050919050565b600082825260208201905092915050565b6000819050602082019050919050565b611dee8161176f565b82525050565b6000611e008383611de5565b60208301905092915050565b6000602082019050919050565b6000611e2482611db9565b611e2e8185611dc4565b9350611e3983611dd5565b8060005b83811015611e6a578151611e518882611df4565b9750611e5c83611e0c565b925050600181019050611e3d565b5085935050505092915050565b60006020820190508181036000830152611e918184611e19565b905092915050565b611ea281611894565b8114611ead57600080fd5b50565b600081359050611ebf81611e99565b92915050565b60008060408385031215611edc57611edb611707565b5b6000611eea8582860161175a565b9250506020611efb85828601611eb0565b9150509250929050565b600067ffffffffffffffff821115611f2057611f1f6119b7565b5b611f2982611919565b9050602081019050919050565b6000611f49611f4484611f05565b611a17565b905082815260208101848484011115611f6557611f64611afa565b5b611f70848285611b30565b509392505050565b600082601f830112611f8d57611f8c6119b2565b5b8135611f9d848260208601611f36565b91505092915050565b60008060408385031215611fbd57611fbc611707565b5b600083013567ffffffffffffffff811115611fdb57611fda61170c565b5b611fe785828601611f78565b9250506020611ff885828601611790565b9150509250929050565b6000806040838503121561201957612018611707565b5b60006120278582860161175a565b92505060206120388582860161175a565b9150509250929050565b600080600080600060a0868803121561205e5761205d611707565b5b600061206c8882890161175a565b955050602061207d8882890161175a565b945050604061208e88828901611790565b935050606061209f88828901611790565b925050608086013567ffffffffffffffff8111156120c0576120bf61170c565b5b6120cc88828901611b81565b9150509295509295909350565b7f455243313135353a2062616c616e636520717565727920666f7220746865207a60008201527f65726f2061646472657373000000000000000000000000000000000000000000602082015250565b6000612135602b836118d5565b9150612140826120d9565b604082019050919050565b6000602082019050818103600083015261216481612128565b9050919050565b7f4e487b7100000000000000000000000000000000000000000000000000000000600052602260045260246000fd5b600060028204905060018216806121b257607f821691505b602082108114156121c6576121c561216b565b5b50919050565b7f455243313135353a207472616e736665722063616c6c6572206973206e6f742060008201527f6f776e6572206e6f7220617070726f7665640000000000000000000000000000602082015250565b60006122286032836118d5565b9150612233826121cc565b604082019050919050565b600060208201905081810360008301526122578161221b565b9050919050565b7f455243313135353a206163636f756e747320616e6420696473206c656e67746860008201527f206d69736d617463680000000000000000000000000000000000000000000000602082015250565b60006122ba6029836118d5565b91506122c58261225e565b604082019050919050565b600060208201905081810360008301526122e9816122ad565b9050919050565b7f4e487b7100000000000000000000000000000000000000000000000000000000600052603260045260246000fd5b7f4e487b7100000000000000000000000000000000000000000000000000000000600052601160045260246000fd5b60006123598261176f565b91507fffffffffffffffffffffffffffffffffffffffffffffffffffffffffffffffff82141561238c5761238b61231f565b5b600182019050919050565b7f455243313135353a2063616c6c6572206973206e6f74206f776e6572206e6f7260008201527f20617070726f7665640000000000000000000000000000000000000000000000602082015250565b60006123f36029836118d5565b91506123fe82612397565b604082019050919050565b60006020820190508181036000830152612422816123e6565b9050919050565b7f455243313135353a2069647320616e6420616d6f756e7473206c656e6774682060008201527f6d69736d61746368000000000000000000000000000000000000000000000000602082015250565b60006124856028836118d5565b915061249082612429565b604082019050919050565b600060208201905081810360008301526124b481612478565b9050919050565b7f455243313135353a207472616e7366657220746f20746865207a65726f20616460008201527f6472657373000000000000000000000000000000000000000000000000000000602082015250565b60006125176025836118d5565b9150612522826124bb565b604082019050919050565b600060208201905081810360008301526125468161250a565b9050919050565b7f455243313135353a20696e73756666696369656e742062616c616e636520666f60008201527f72207472616e7366657200000000000000000000000000000000000000000000602082015250565b60006125a9602a836118d5565b91506125b48261254d565b604082019050919050565b600060208201905081810360008301526125d88161259c565b9050919050565b60006125ea8261176f565b91506125f58361176f565b9250827fffffffffffffffffffffffffffffffffffffffffffffffffffffffffffffffff0382111561262a5761262961231f565b5b828201905092915050565b6000604082019050818103600083015261264f8185611e19565b905081810360208301526126638184611e19565b90509392505050565b7f455243313135353a2073657474696e6720617070726f76616c2073746174757360008201527f20666f722073656c660000000000000000000000000000000000000000000000602082015250565b60006126c86029836118d5565b91506126d38261266c565b604082019050919050565b600060208201905081810360008301526126f7816126bb565b9050919050565b7f455243313135353a206d696e7420746f20746865207a65726f2061646472657360008201527f7300000000000000000000000000000000000000000000000000000000000000602082015250565b600061275a6021836118d5565b9150612765826126fe565b604082019050919050565b600060208201905081810360008301526127898161274d565b9050919050565b60006040820190506127a560008301856117e5565b6127b260208301846117e5565b9392505050565b6127c281611731565b82525050565b600081519050919050565b600082825260208201905092915050565b60006127ef826127c8565b6127f981856127d3565b93506128098185602086016118e6565b61281281611919565b840191505092915050565b600060a08201905061283260008301886127b9565b61283f60208301876127b9565b81810360408301526128518186611e19565b905081810360608301526128658185611e19565b9050818103608083015261287981846127e4565b90509695505050505050565b6000815190506128948161183b565b92915050565b6000602082840312156128b0576128af611707565b5b60006128be84828501612885565b91505092915050565b60008160e01c9050919050565b600060033d11156128f35760046000803e6128f06000516128c7565b90505b90565b600060443d101561290657612989565b61290e6116fd565b60043d036004823e80513d602482011167ffffffffffffffff82111715612936575050612989565b808201805167ffffffffffffffff8111156129545750505050612989565b80602083010160043d038501811115612971575050505050612989565b612980826020018501866119e6565b82955050505050505b90565b7f455243313135353a207472616e7366657220746f206e6f6e204552433131353560008201527f526563656976657220696d706c656d656e746572000000000000000000000000602082015250565b60006129e86034836118d5565b91506129f38261298c565b604082019050919050565b60006020820190508181036000830152612a17816129db565b9050919050565b7f455243313135353a204552433131353552656365697665722072656a6563746560008201527f6420746f6b656e73000000000000000000000000000000000000000000000000602082015250565b6000612a7a6028836118d5565b9150612a8582612a1e565b604082019050919050565b60006020820190508181036000830152612aa981612a6d565b9050919050565b600060a082019050612ac560008301886127b9565b612ad260208301876127b9565b612adf60408301866117e5565b612aec60608301856117e5565b8181036080830152612afe81846127e4565b9050969550505050505056fea2646970667358221220964a57a8605810ff9e7cb92961eabf792c79137759729d5f8bbad19279c4913264736f6c634300080b0033495f646f6e745f636172655f61626f75745f7468655f5552495f626563617573655f496d5f676f6e6e615f6368616e67655f69745f6c61746572",
  "linkReferences": {},
  "deployedLinkReferences": {}
}